{
  "_format": "hh-sol-artifact-1",
  "contractName": "Bet",
  "sourceName": "contracts/bet.sol",
  "abi": [
    {
      "inputs": [
        {
          "internalType": "uint256",
          "name": "id",
          "type": "uint256"
        },
        {
          "internalType": "uint256",
          "name": "odd",
          "type": "uint256"
        },
        {
          "internalType": "address",
          "name": "token_address",
          "type": "address"
        }
      ],
      "stateMutability": "nonpayable",
      "type": "constructor"
    },
    {
      "inputs": [
        {
          "internalType": "uint256",
          "name": "amount",
          "type": "uint256"
        }
      ],
      "name": "bet",
      "outputs": [
        {
          "internalType": "bool",
          "name": "",
          "type": "bool"
        }
      ],
      "stateMutability": "nonpayable",
      "type": "function"
    },
    {
      "inputs": [],
      "name": "betLose",
      "outputs": [],
      "stateMutability": "nonpayable",
      "type": "function"
    },
    {
      "inputs": [],
      "name": "betWin",
      "outputs": [],
      "stateMutability": "nonpayable",
      "type": "function"
    },
    {
      "inputs": [],
      "name": "fuelBet",
      "outputs": [],
      "stateMutability": "nonpayable",
      "type": "function"
    },
    {
      "inputs": [],
      "name": "getContractTokenBalance",
      "outputs": [
        {
          "internalType": "uint256",
          "name": "",
          "type": "uint256"
        }
      ],
      "stateMutability": "view",
      "type": "function"
    }
  ],
  "bytecode": "0x608060405273dd2fd4581271e230360230f9337d5c0430bf44c0600160006101000a81548173ffffffffffffffffffffffffffffffffffffffff021916908373ffffffffffffffffffffffffffffffffffffffff1602179055503480156200006657600080fd5b5060405162000ddd38038062000ddd83398181016040528101906200008c919062000152565b336000806101000a81548173ffffffffffffffffffffffffffffffffffffffff021916908373ffffffffffffffffffffffffffffffffffffffff160217905550826002819055508160038190555080600560006101000a81548173ffffffffffffffffffffffffffffffffffffffff021916908373ffffffffffffffffffffffffffffffffffffffff1602179055505050506200021a565b6000815190506200013581620001e6565b92915050565b6000815190506200014c8162000200565b92915050565b6000806000606084860312156200016857600080fd5b600062000178868287016200013b565b93505060206200018b868287016200013b565b92505060406200019e8682870162000124565b9150509250925092565b6000620001b582620001bc565b9050919050565b600073ffffffffffffffffffffffffffffffffffffffff82169050919050565b6000819050919050565b620001f181620001a8565b8114620001fd57600080fd5b50565b6200020b81620001dc565b81146200021757600080fd5b50565b610bb3806200022a6000396000f3fe608060405234801561001057600080fd5b50600436106100575760003560e01c8063128e2e591461005c578063317d94531461006657806347ca471f14610084578063656d529e1461008e5780637365870b14610098575b600080fd5b6100646100c8565b005b61006e61019e565b60405161007b9190610a00565b60405180910390f35b61008c610250565b005b610096610328565b005b6100b260048036038101906100ad9190610865565b6104fe565b6040516100bf91906109a5565b60405180910390f35b600560009054906101000a900473ffffffffffffffffffffffffffffffffffffffff1673ffffffffffffffffffffffffffffffffffffffff166323b872dd3060008054906101000a900473ffffffffffffffffffffffffffffffffffffffff166004546040518463ffffffff1660e01b815260040161014993929190610945565b602060405180830381600087803b15801561016357600080fd5b505af1158015610177573d6000803e3d6000fd5b505050506040513d601f19601f8201168201806040525081019061019b919061083c565b50565b6000600560009054906101000a900473ffffffffffffffffffffffffffffffffffffffff1673ffffffffffffffffffffffffffffffffffffffff166370a08231306040518263ffffffff1660e01b81526004016101fb919061092a565b60206040518083038186803b15801561021357600080fd5b505afa158015610227573d6000803e3d6000fd5b505050506040513d601f19601f8201168201806040525081019061024b919061088e565b905090565b600560009054906101000a900473ffffffffffffffffffffffffffffffffffffffff1673ffffffffffffffffffffffffffffffffffffffff166323b872dd30600160009054906101000a900473ffffffffffffffffffffffffffffffffffffffff166004546040518463ffffffff1660e01b81526004016102d393929190610945565b602060405180830381600087803b1580156102ed57600080fd5b505af1158015610301573d6000803e3d6000fd5b505050506040513d601f19601f82011682018060405250810190610325919061083c565b50565b600160009054906101000a900473ffffffffffffffffffffffffffffffffffffffff1673ffffffffffffffffffffffffffffffffffffffff163373ffffffffffffffffffffffffffffffffffffffff161461038257600080fd5b6003546004546103929190610a2c565b600481905550600560009054906101000a900473ffffffffffffffffffffffffffffffffffffffff1673ffffffffffffffffffffffffffffffffffffffff1663095ea7b3306004546040518363ffffffff1660e01b81526004016103f792919061097c565b602060405180830381600087803b15801561041157600080fd5b505af1158015610425573d6000803e3d6000fd5b505050506040513d601f19601f82011682018060405250810190610449919061083c565b50600560009054906101000a900473ffffffffffffffffffffffffffffffffffffffff1673ffffffffffffffffffffffffffffffffffffffff1663a9059cbb306004546040518363ffffffff1660e01b81526004016104a992919061097c565b602060405180830381600087803b1580156104c357600080fd5b505af11580156104d7573d6000803e3d6000fd5b505050506040513d601f19601f820116820180604052508101906104fb919061083c565b50565b6000816004819055506000821161054a576040517f08c379a0000000000000000000000000000000000000000000000000000000008152600401610541906109e0565b60405180910390fd5b60008054906101000a900473ffffffffffffffffffffffffffffffffffffffff1673ffffffffffffffffffffffffffffffffffffffff163373ffffffffffffffffffffffffffffffffffffffff16146105d8576040517f08c379a00000000000000000000000000000000000000000000000000000000081526004016105cf906109c0565b60405180910390fd5b600454600560009054906101000a900473ffffffffffffffffffffffffffffffffffffffff1673ffffffffffffffffffffffffffffffffffffffff166370a08231336040518263ffffffff1660e01b8152600401610636919061092a565b60206040518083038186803b15801561064e57600080fd5b505afa158015610662573d6000803e3d6000fd5b505050506040513d601f19601f82011682018060405250810190610686919061088e565b1161069057600080fd5b600560009054906101000a900473ffffffffffffffffffffffffffffffffffffffff1673ffffffffffffffffffffffffffffffffffffffff1663095ea7b3306004546040518363ffffffff1660e01b81526004016106ef92919061097c565b602060405180830381600087803b15801561070957600080fd5b505af115801561071d573d6000803e3d6000fd5b505050506040513d601f19601f82011682018060405250810190610741919061083c565b50600560009054906101000a900473ffffffffffffffffffffffffffffffffffffffff1673ffffffffffffffffffffffffffffffffffffffff1663a9059cbb306004546040518363ffffffff1660e01b81526004016107a192919061097c565b602060405180830381600087803b1580156107bb57600080fd5b505af11580156107cf573d6000803e3d6000fd5b505050506040513d601f19601f820116820180604052508101906107f3919061083c565b5060019050919050565b60008151905061080c81610b4f565b92915050565b60008135905061082181610b66565b92915050565b60008151905061083681610b66565b92915050565b60006020828403121561084e57600080fd5b600061085c848285016107fd565b91505092915050565b60006020828403121561087757600080fd5b600061088584828501610812565b91505092915050565b6000602082840312156108a057600080fd5b60006108ae84828501610827565b91505092915050565b6108c081610a86565b82525050565b6108cf81610a98565b82525050565b60006108e2601983610a1b565b91506108ed82610afd565b602082019050919050565b6000610905601483610a1b565b915061091082610b26565b602082019050919050565b61092481610ac4565b82525050565b600060208201905061093f60008301846108b7565b92915050565b600060608201905061095a60008301866108b7565b61096760208301856108b7565b610974604083018461091b565b949350505050565b600060408201905061099160008301856108b7565b61099e602083018461091b565b9392505050565b60006020820190506109ba60008301846108c6565b92915050565b600060208201905081810360008301526109d9816108d5565b9050919050565b600060208201905081810360008301526109f9816108f8565b9050919050565b6000602082019050610a15600083018461091b565b92915050565b600082825260208201905092915050565b6000610a3782610ac4565b9150610a4283610ac4565b9250817fffffffffffffffffffffffffffffffffffffffffffffffffffffffffffffffff0483118215151615610a7b57610a7a610ace565b5b828202905092915050565b6000610a9182610aa4565b9050919050565b60008115159050919050565b600073ffffffffffffffffffffffffffffffffffffffff82169050919050565b6000819050919050565b7f4e487b7100000000000000000000000000000000000000000000000000000000600052601160045260246000fd5b7f50617269617a6120706520706172697572696c652074616c6500000000000000600082015250565b7f54726562756965207361206a6f63692063657661000000000000000000000000600082015250565b610b5881610a98565b8114610b6357600080fd5b50565b610b6f81610ac4565b8114610b7a57600080fd5b5056fea264697066735822122007cf16d2b5843f44fc68b5f3c3088c58c941eef5c65ac38d6214141bfed7f34364736f6c63430008040033",
  "linkReferences": {},
  "deployedLinkReferences": {}
}