{
  "_format": "hh-sol-artifact-1",
  "contractName": "BetCoin",
  "sourceName": "contracts/betcoin.sol",
  "abi": [
    {
      "inputs": [
        {
          "internalType": "uint256",
          "name": "initialSupply",
          "type": "uint256"
        }
      ],
      "stateMutability": "nonpayable",
      "type": "constructor"
    },
    {
      "anonymous": false,
      "inputs": [
        {
          "indexed": true,
          "internalType": "address",
          "name": "owner",
          "type": "address"
        },
        {
          "indexed": true,
          "internalType": "address",
          "name": "spender",
          "type": "address"
        },
        {
          "indexed": false,
          "internalType": "uint256",
          "name": "value",
          "type": "uint256"
        }
      ],
      "name": "Approval",
      "type": "event"
    },
    {
      "anonymous": false,
      "inputs": [
        {
          "indexed": true,
          "internalType": "address",
          "name": "from",
          "type": "address"
        },
        {
          "indexed": true,
          "internalType": "address",
          "name": "to",
          "type": "address"
        },
        {
          "indexed": false,
          "internalType": "uint256",
          "name": "value",
          "type": "uint256"
        }
      ],
      "name": "Transfer",
      "type": "event"
    },
    {
      "inputs": [
        {
          "internalType": "address",
          "name": "owner",
          "type": "address"
        },
        {
          "internalType": "address",
          "name": "spender",
          "type": "address"
        }
      ],
      "name": "allowance",
      "outputs": [
        {
          "internalType": "uint256",
          "name": "",
          "type": "uint256"
        }
      ],
      "stateMutability": "view",
      "type": "function"
    },
    {
      "inputs": [
        {
          "internalType": "address",
          "name": "spender",
          "type": "address"
        },
        {
          "internalType": "uint256",
          "name": "amount",
          "type": "uint256"
        }
      ],
      "name": "approve",
      "outputs": [
        {
          "internalType": "bool",
          "name": "",
          "type": "bool"
        }
      ],
      "stateMutability": "nonpayable",
      "type": "function"
    },
    {
      "inputs": [
        {
          "internalType": "address",
          "name": "account",
          "type": "address"
        }
      ],
      "name": "balanceOf",
      "outputs": [
        {
          "internalType": "uint256",
          "name": "",
          "type": "uint256"
        }
      ],
      "stateMutability": "view",
      "type": "function"
    },
    {
      "inputs": [],
      "name": "decimals",
      "outputs": [
        {
          "internalType": "uint8",
          "name": "",
          "type": "uint8"
        }
      ],
      "stateMutability": "view",
      "type": "function"
    },
    {
      "inputs": [
        {
          "internalType": "address",
          "name": "spender",
          "type": "address"
        },
        {
          "internalType": "uint256",
          "name": "subtractedValue",
          "type": "uint256"
        }
      ],
      "name": "decreaseAllowance",
      "outputs": [
        {
          "internalType": "bool",
          "name": "",
          "type": "bool"
        }
      ],
      "stateMutability": "nonpayable",
      "type": "function"
    },
    {
      "inputs": [
        {
          "internalType": "address",
          "name": "user",
          "type": "address"
        }
      ],
      "name": "faucet",
      "outputs": [],
      "stateMutability": "nonpayable",
      "type": "function"
    },
    {
      "inputs": [
        {
          "internalType": "address",
          "name": "spender",
          "type": "address"
        },
        {
          "internalType": "uint256",
          "name": "addedValue",
          "type": "uint256"
        }
      ],
      "name": "increaseAllowance",
      "outputs": [
        {
          "internalType": "bool",
          "name": "",
          "type": "bool"
        }
      ],
      "stateMutability": "nonpayable",
      "type": "function"
    },
    {
      "inputs": [],
      "name": "name",
      "outputs": [
        {
          "internalType": "string",
          "name": "",
          "type": "string"
        }
      ],
      "stateMutability": "view",
      "type": "function"
    },
    {
      "inputs": [],
      "name": "symbol",
      "outputs": [
        {
          "internalType": "string",
          "name": "",
          "type": "string"
        }
      ],
      "stateMutability": "view",
      "type": "function"
    },
    {
      "inputs": [],
      "name": "totalSupply",
      "outputs": [
        {
          "internalType": "uint256",
          "name": "",
          "type": "uint256"
        }
      ],
      "stateMutability": "view",
      "type": "function"
    },
    {
      "inputs": [
        {
          "internalType": "address",
          "name": "to",
          "type": "address"
        },
        {
          "internalType": "uint256",
          "name": "amount",
          "type": "uint256"
        }
      ],
      "name": "transfer",
      "outputs": [
        {
          "internalType": "bool",
          "name": "",
          "type": "bool"
        }
      ],
      "stateMutability": "nonpayable",
      "type": "function"
    },
    {
      "inputs": [
        {
          "internalType": "address",
          "name": "from",
          "type": "address"
        },
        {
          "internalType": "address",
          "name": "to",
          "type": "address"
        },
        {
          "internalType": "uint256",
          "name": "amount",
          "type": "uint256"
        }
      ],
      "name": "transferFrom",
      "outputs": [
        {
          "internalType": "bool",
          "name": "",
          "type": "bool"
        }
      ],
      "stateMutability": "nonpayable",
      "type": "function"
    }
  ],
  "bytecode": "0x6080604052600a6006553480156200001657600080fd5b5060405162001ff538038062001ff583398181016040528101906200003c919062000372565b6040518060400160405280600781526020017f426574436f696e000000000000000000000000000000000000000000000000008152506040518060400160405280600381526020017f42455400000000000000000000000000000000000000000000000000000000008152508160039080519060200190620000c0929190620002ab565b508060049080519060200190620000d9929190620002ab565b5050506200011833620000f16200011f60201b60201c565b600a620000ff9190620004de565b836200010c91906200061b565b6200012860201b60201c565b5062000777565b60006012905090565b600073ffffffffffffffffffffffffffffffffffffffff168273ffffffffffffffffffffffffffffffffffffffff1614156200019b576040517f08c379a00000000000000000000000000000000000000000000000000000000081526004016200019290620003d6565b60405180910390fd5b620001af60008383620002a160201b60201c565b8060026000828254620001c3919062000426565b92505081905550806000808473ffffffffffffffffffffffffffffffffffffffff1673ffffffffffffffffffffffffffffffffffffffff16815260200190815260200160002060008282546200021a919062000426565b925050819055508173ffffffffffffffffffffffffffffffffffffffff16600073ffffffffffffffffffffffffffffffffffffffff167fddf252ad1be2c89b69c2b068fc378daa952ba7f163c4a11628f55a4df523b3ef83604051620002819190620003f8565b60405180910390a36200029d60008383620002a660201b60201c565b5050565b505050565b505050565b828054620002b99062000693565b90600052602060002090601f016020900481019282620002dd576000855562000329565b82601f10620002f857805160ff191683800117855562000329565b8280016001018555821562000329579182015b82811115620003285782518255916020019190600101906200030b565b5b5090506200033891906200033c565b5090565b5b80821115620003575760008160009055506001016200033d565b5090565b6000815190506200036c816200075d565b92915050565b6000602082840312156200038557600080fd5b600062000395848285016200035b565b91505092915050565b6000620003ad601f8362000415565b9150620003ba8262000734565b602082019050919050565b620003d0816200067c565b82525050565b60006020820190508181036000830152620003f1816200039e565b9050919050565b60006020820190506200040f6000830184620003c5565b92915050565b600082825260208201905092915050565b600062000433826200067c565b915062000440836200067c565b9250827fffffffffffffffffffffffffffffffffffffffffffffffffffffffffffffffff03821115620004785762000477620006c9565b5b828201905092915050565b6000808291508390505b6001851115620004d557808604811115620004ad57620004ac620006c9565b5b6001851615620004bd5780820291505b8081029050620004cd8562000727565b94506200048d565b94509492505050565b6000620004eb826200067c565b9150620004f88362000686565b9250620005277fffffffffffffffffffffffffffffffffffffffffffffffffffffffffffffffff84846200052f565b905092915050565b60008262000541576001905062000614565b8162000551576000905062000614565b81600181146200056a57600281146200057557620005ab565b600191505062000614565b60ff8411156200058a5762000589620006c9565b5b8360020a915084821115620005a457620005a3620006c9565b5b5062000614565b5060208310610133831016604e8410600b8410161715620005e55782820a905083811115620005df57620005de620006c9565b5b62000614565b620005f4848484600162000483565b925090508184048111156200060e576200060d620006c9565b5b81810290505b9392505050565b600062000628826200067c565b915062000635836200067c565b9250817fffffffffffffffffffffffffffffffffffffffffffffffffffffffffffffffff0483118215151615620006715762000670620006c9565b5b828202905092915050565b6000819050919050565b600060ff82169050919050565b60006002820490506001821680620006ac57607f821691505b60208210811415620006c357620006c2620006f8565b5b50919050565b7f4e487b7100000000000000000000000000000000000000000000000000000000600052601160045260246000fd5b7f4e487b7100000000000000000000000000000000000000000000000000000000600052602260045260246000fd5b60008160011c9050919050565b7f45524332303a206d696e7420746f20746865207a65726f206164647265737300600082015250565b62000768816200067c565b81146200077457600080fd5b50565b61186e80620007876000396000f3fe608060405234801561001057600080fd5b50600436106100b45760003560e01c806370a082311161007157806370a08231146101a357806395d89b41146101d3578063a457c2d7146101f1578063a9059cbb14610221578063b86d1d6314610251578063dd62ed3e1461026d576100b4565b806306fdde03146100b9578063095ea7b3146100d757806318160ddd1461010757806323b872dd14610125578063313ce567146101555780633950935114610173575b600080fd5b6100c161029d565b6040516100ce91906110ca565b60405180910390f35b6100f160048036038101906100ec9190610ed2565b61032f565b6040516100fe91906110af565b60405180910390f35b61010f610352565b60405161011c919061120c565b60405180910390f35b61013f600480360381019061013a9190610e83565b61035c565b60405161014c91906110af565b60405180910390f35b61015d61038b565b60405161016a9190611227565b60405180910390f35b61018d60048036038101906101889190610ed2565b610394565b60405161019a91906110af565b60405180910390f35b6101bd60048036038101906101b89190610e1e565b61043e565b6040516101ca919061120c565b60405180910390f35b6101db610486565b6040516101e891906110ca565b60405180910390f35b61020b60048036038101906102069190610ed2565b610518565b60405161021891906110af565b60405180910390f35b61023b60048036038101906102369190610ed2565b610602565b60405161024891906110af565b60405180910390f35b61026b60048036038101906102669190610e1e565b610625565b005b61028760048036038101906102829190610e47565b610723565b604051610294919061120c565b60405180910390f35b6060600380546102ac90611507565b80601f01602080910402602001604051908101604052809291908181526020018280546102d890611507565b80156103255780601f106102fa57610100808354040283529160200191610325565b820191906000526020600020905b81548152906001019060200180831161030857829003601f168201915b5050505050905090565b60008061033a6107aa565b90506103478185856107b2565b600191505092915050565b6000600254905090565b6000806103676107aa565b905061037485828561097d565b61037f858585610a09565b60019150509392505050565b60006012905090565b60008061039f6107aa565b9050610433818585600160008673ffffffffffffffffffffffffffffffffffffffff1673ffffffffffffffffffffffffffffffffffffffff16815260200190815260200160002060008973ffffffffffffffffffffffffffffffffffffffff1673ffffffffffffffffffffffffffffffffffffffff1681526020019081526020016000205461042e919061125e565b6107b2565b600191505092915050565b60008060008373ffffffffffffffffffffffffffffffffffffffff1673ffffffffffffffffffffffffffffffffffffffff168152602001908152602001600020549050919050565b60606004805461049590611507565b80601f01602080910402602001604051908101604052809291908181526020018280546104c190611507565b801561050e5780601f106104e35761010080835404028352916020019161050e565b820191906000526020600020905b8154815290600101906020018083116104f157829003601f168201915b5050505050905090565b6000806105236107aa565b90506000600160008373ffffffffffffffffffffffffffffffffffffffff1673ffffffffffffffffffffffffffffffffffffffff16815260200190815260200160002060008673ffffffffffffffffffffffffffffffffffffffff1673ffffffffffffffffffffffffffffffffffffffff168152602001908152602001600020549050838110156105e9576040517f08c379a00000000000000000000000000000000000000000000000000000000081526004016105e0906111cc565b60405180910390fd5b6105f682868684036107b2565b60019250505092915050565b60008061060d6107aa565b905061061a818585610a09565b600191505092915050565b42600560008373ffffffffffffffffffffffffffffffffffffffff1673ffffffffffffffffffffffffffffffffffffffff16815260200190815260200160002054106106a6576040517f08c379a000000000000000000000000000000000000000000000000000000000815260040161069d9061116c565b60405180910390fd5b6005426106b3919061125e565b600560008373ffffffffffffffffffffffffffffffffffffffff1673ffffffffffffffffffffffffffffffffffffffff168152602001908152602001600020819055506107208161070261038b565b600a61070e9190611307565b60065461071b9190611425565b610c8a565b50565b6000600160008473ffffffffffffffffffffffffffffffffffffffff1673ffffffffffffffffffffffffffffffffffffffff16815260200190815260200160002060008373ffffffffffffffffffffffffffffffffffffffff1673ffffffffffffffffffffffffffffffffffffffff16815260200190815260200160002054905092915050565b600033905090565b600073ffffffffffffffffffffffffffffffffffffffff168373ffffffffffffffffffffffffffffffffffffffff161415610822576040517f08c379a0000000000000000000000000000000000000000000000000000000008152600401610819906111ac565b60405180910390fd5b600073ffffffffffffffffffffffffffffffffffffffff168273ffffffffffffffffffffffffffffffffffffffff161415610892576040517f08c379a00000000000000000000000000000000000000000000000000000000081526004016108899061110c565b60405180910390fd5b80600160008573ffffffffffffffffffffffffffffffffffffffff1673ffffffffffffffffffffffffffffffffffffffff16815260200190815260200160002060008473ffffffffffffffffffffffffffffffffffffffff1673ffffffffffffffffffffffffffffffffffffffff168152602001908152602001600020819055508173ffffffffffffffffffffffffffffffffffffffff168373ffffffffffffffffffffffffffffffffffffffff167f8c5be1e5ebec7d5bd14f71427d1e84f3dd0314c0f7b2291e5b200ac8c7c3b92583604051610970919061120c565b60405180910390a3505050565b60006109898484610723565b90507fffffffffffffffffffffffffffffffffffffffffffffffffffffffffffffffff8114610a0357818110156109f5576040517f08c379a00000000000000000000000000000000000000000000000000000000081526004016109ec9061112c565b60405180910390fd5b610a0284848484036107b2565b5b50505050565b600073ffffffffffffffffffffffffffffffffffffffff168373ffffffffffffffffffffffffffffffffffffffff161415610a79576040517f08c379a0000000000000000000000000000000000000000000000000000000008152600401610a709061118c565b60405180910390fd5b600073ffffffffffffffffffffffffffffffffffffffff168273ffffffffffffffffffffffffffffffffffffffff161415610ae9576040517f08c379a0000000000000000000000000000000000000000000000000000000008152600401610ae0906110ec565b60405180910390fd5b610af4838383610dea565b60008060008573ffffffffffffffffffffffffffffffffffffffff1673ffffffffffffffffffffffffffffffffffffffff16815260200190815260200160002054905081811015610b7a576040517f08c379a0000000000000000000000000000000000000000000000000000000008152600401610b719061114c565b60405180910390fd5b8181036000808673ffffffffffffffffffffffffffffffffffffffff1673ffffffffffffffffffffffffffffffffffffffff16815260200190815260200160002081905550816000808573ffffffffffffffffffffffffffffffffffffffff1673ffffffffffffffffffffffffffffffffffffffff1681526020019081526020016000206000828254610c0d919061125e565b925050819055508273ffffffffffffffffffffffffffffffffffffffff168473ffffffffffffffffffffffffffffffffffffffff167fddf252ad1be2c89b69c2b068fc378daa952ba7f163c4a11628f55a4df523b3ef84604051610c71919061120c565b60405180910390a3610c84848484610def565b50505050565b600073ffffffffffffffffffffffffffffffffffffffff168273ffffffffffffffffffffffffffffffffffffffff161415610cfa576040517f08c379a0000000000000000000000000000000000000000000000000000000008152600401610cf1906111ec565b60405180910390fd5b610d0660008383610dea565b8060026000828254610d18919061125e565b92505081905550806000808473ffffffffffffffffffffffffffffffffffffffff1673ffffffffffffffffffffffffffffffffffffffff1681526020019081526020016000206000828254610d6d919061125e565b925050819055508173ffffffffffffffffffffffffffffffffffffffff16600073ffffffffffffffffffffffffffffffffffffffff167fddf252ad1be2c89b69c2b068fc378daa952ba7f163c4a11628f55a4df523b3ef83604051610dd2919061120c565b60405180910390a3610de660008383610def565b5050565b505050565b505050565b600081359050610e038161180a565b92915050565b600081359050610e1881611821565b92915050565b600060208284031215610e3057600080fd5b6000610e3e84828501610df4565b91505092915050565b60008060408385031215610e5a57600080fd5b6000610e6885828601610df4565b9250506020610e7985828601610df4565b9150509250929050565b600080600060608486031215610e9857600080fd5b6000610ea686828701610df4565b9350506020610eb786828701610df4565b9250506040610ec886828701610e09565b9150509250925092565b60008060408385031215610ee557600080fd5b6000610ef385828601610df4565b9250506020610f0485828601610e09565b9150509250929050565b610f1781611491565b82525050565b6000610f2882611242565b610f32818561124d565b9350610f428185602086016114d4565b610f4b81611597565b840191505092915050565b6000610f6360238361124d565b9150610f6e826115b5565b604082019050919050565b6000610f8660228361124d565b9150610f9182611604565b604082019050919050565b6000610fa9601d8361124d565b9150610fb482611653565b602082019050919050565b6000610fcc60268361124d565b9150610fd78261167c565b604082019050919050565b6000610fef601c8361124d565b9150610ffa826116cb565b602082019050919050565b600061101260258361124d565b915061101d826116f4565b604082019050919050565b600061103560248361124d565b915061104082611743565b604082019050919050565b600061105860258361124d565b915061106382611792565b604082019050919050565b600061107b601f8361124d565b9150611086826117e1565b602082019050919050565b61109a816114bd565b82525050565b6110a9816114c7565b82525050565b60006020820190506110c46000830184610f0e565b92915050565b600060208201905081810360008301526110e48184610f1d565b905092915050565b6000602082019050818103600083015261110581610f56565b9050919050565b6000602082019050818103600083015261112581610f79565b9050919050565b6000602082019050818103600083015261114581610f9c565b9050919050565b6000602082019050818103600083015261116581610fbf565b9050919050565b6000602082019050818103600083015261118581610fe2565b9050919050565b600060208201905081810360008301526111a581611005565b9050919050565b600060208201905081810360008301526111c581611028565b9050919050565b600060208201905081810360008301526111e58161104b565b9050919050565b600060208201905081810360008301526112058161106e565b9050919050565b60006020820190506112216000830184611091565b92915050565b600060208201905061123c60008301846110a0565b92915050565b600081519050919050565b600082825260208201905092915050565b6000611269826114bd565b9150611274836114bd565b9250827fffffffffffffffffffffffffffffffffffffffffffffffffffffffffffffffff038211156112a9576112a8611539565b5b828201905092915050565b6000808291508390505b60018511156112fe578086048111156112da576112d9611539565b5b60018516156112e95780820291505b80810290506112f7856115a8565b94506112be565b94509492505050565b6000611312826114bd565b915061131d836114c7565b925061134a7fffffffffffffffffffffffffffffffffffffffffffffffffffffffffffffffff8484611352565b905092915050565b600082611362576001905061141e565b81611370576000905061141e565b81600181146113865760028114611390576113bf565b600191505061141e565b60ff8411156113a2576113a1611539565b5b8360020a9150848211156113b9576113b8611539565b5b5061141e565b5060208310610133831016604e8410600b84101617156113f45782820a9050838111156113ef576113ee611539565b5b61141e565b61140184848460016112b4565b9250905081840481111561141857611417611539565b5b81810290505b9392505050565b6000611430826114bd565b915061143b836114bd565b9250817fffffffffffffffffffffffffffffffffffffffffffffffffffffffffffffffff048311821515161561147457611473611539565b5b828202905092915050565b600061148a8261149d565b9050919050565b60008115159050919050565b600073ffffffffffffffffffffffffffffffffffffffff82169050919050565b6000819050919050565b600060ff82169050919050565b60005b838110156114f25780820151818401526020810190506114d7565b83811115611501576000848401525b50505050565b6000600282049050600182168061151f57607f821691505b6020821081141561153357611532611568565b5b50919050565b7f4e487b7100000000000000000000000000000000000000000000000000000000600052601160045260246000fd5b7f4e487b7100000000000000000000000000000000000000000000000000000000600052602260045260246000fd5b6000601f19601f8301169050919050565b60008160011c9050919050565b7f45524332303a207472616e7366657220746f20746865207a65726f206164647260008201527f6573730000000000000000000000000000000000000000000000000000000000602082015250565b7f45524332303a20617070726f766520746f20746865207a65726f20616464726560008201527f7373000000000000000000000000000000000000000000000000000000000000602082015250565b7f45524332303a20696e73756666696369656e7420616c6c6f77616e6365000000600082015250565b7f45524332303a207472616e7366657220616d6f756e742065786365656473206260008201527f616c616e63650000000000000000000000000000000000000000000000000000602082015250565b7f4661756365744572726f723a2054727920616761696e206c6174657200000000600082015250565b7f45524332303a207472616e736665722066726f6d20746865207a65726f20616460008201527f6472657373000000000000000000000000000000000000000000000000000000602082015250565b7f45524332303a20617070726f76652066726f6d20746865207a65726f2061646460008201527f7265737300000000000000000000000000000000000000000000000000000000602082015250565b7f45524332303a2064656372656173656420616c6c6f77616e63652062656c6f7760008201527f207a65726f000000000000000000000000000000000000000000000000000000602082015250565b7f45524332303a206d696e7420746f20746865207a65726f206164647265737300600082015250565b6118138161147f565b811461181e57600080fd5b50565b61182a816114bd565b811461183557600080fd5b5056fea2646970667358221220900b0259549b6081f508e0d7de13f35e78dd55afd08a789bbecf09e9c264f93264736f6c63430008040033",
  "linkReferences": {},
  "deployedLinkReferences": {}
}