{
  "_format": "hh-sol-artifact-1",
  "contractName": "BetCoin",
  "sourceName": "contracts/betcoin.sol",
  "abi": [
    {
      "inputs": [
        {
          "internalType": "uint256",
          "name": "initialSupply",
          "type": "uint256"
        }
      ],
      "stateMutability": "nonpayable",
      "type": "constructor"
    },
    {
      "anonymous": false,
      "inputs": [
        {
          "indexed": true,
          "internalType": "address",
          "name": "owner",
          "type": "address"
        },
        {
          "indexed": true,
          "internalType": "address",
          "name": "spender",
          "type": "address"
        },
        {
          "indexed": false,
          "internalType": "uint256",
          "name": "value",
          "type": "uint256"
        }
      ],
      "name": "Approval",
      "type": "event"
    },
    {
      "anonymous": false,
      "inputs": [
        {
          "indexed": true,
          "internalType": "address",
          "name": "from",
          "type": "address"
        },
        {
          "indexed": true,
          "internalType": "address",
          "name": "to",
          "type": "address"
        },
        {
          "indexed": false,
          "internalType": "uint256",
          "name": "value",
          "type": "uint256"
        }
      ],
      "name": "Transfer",
      "type": "event"
    },
    {
      "inputs": [
        {
          "internalType": "address",
          "name": "owner",
          "type": "address"
        },
        {
          "internalType": "address",
          "name": "spender",
          "type": "address"
        }
      ],
      "name": "allowance",
      "outputs": [
        {
          "internalType": "uint256",
          "name": "",
          "type": "uint256"
        }
      ],
      "stateMutability": "view",
      "type": "function"
    },
    {
      "inputs": [
        {
          "internalType": "address",
          "name": "spender",
          "type": "address"
        },
        {
          "internalType": "uint256",
          "name": "amount",
          "type": "uint256"
        }
      ],
      "name": "approve",
      "outputs": [
        {
          "internalType": "bool",
          "name": "",
          "type": "bool"
        }
      ],
      "stateMutability": "nonpayable",
      "type": "function"
    },
    {
      "inputs": [
        {
          "internalType": "address",
          "name": "account",
          "type": "address"
        }
      ],
      "name": "balanceOf",
      "outputs": [
        {
          "internalType": "uint256",
          "name": "",
          "type": "uint256"
        }
      ],
      "stateMutability": "view",
      "type": "function"
    },
    {
      "inputs": [],
      "name": "decimals",
      "outputs": [
        {
          "internalType": "uint8",
          "name": "",
          "type": "uint8"
        }
      ],
      "stateMutability": "view",
      "type": "function"
    },
    {
      "inputs": [
        {
          "internalType": "address",
          "name": "spender",
          "type": "address"
        },
        {
          "internalType": "uint256",
          "name": "subtractedValue",
          "type": "uint256"
        }
      ],
      "name": "decreaseAllowance",
      "outputs": [
        {
          "internalType": "bool",
          "name": "",
          "type": "bool"
        }
      ],
      "stateMutability": "nonpayable",
      "type": "function"
    },
    {
      "inputs": [],
      "name": "faucet",
      "outputs": [],
      "stateMutability": "nonpayable",
      "type": "function"
    },
    {
      "inputs": [
        {
          "internalType": "address",
          "name": "spender",
          "type": "address"
        },
        {
          "internalType": "uint256",
          "name": "addedValue",
          "type": "uint256"
        }
      ],
      "name": "increaseAllowance",
      "outputs": [
        {
          "internalType": "bool",
          "name": "",
          "type": "bool"
        }
      ],
      "stateMutability": "nonpayable",
      "type": "function"
    },
    {
      "inputs": [],
      "name": "name",
      "outputs": [
        {
          "internalType": "string",
          "name": "",
          "type": "string"
        }
      ],
      "stateMutability": "view",
      "type": "function"
    },
    {
      "inputs": [],
      "name": "symbol",
      "outputs": [
        {
          "internalType": "string",
          "name": "",
          "type": "string"
        }
      ],
      "stateMutability": "view",
      "type": "function"
    },
    {
      "inputs": [],
      "name": "totalSupply",
      "outputs": [
        {
          "internalType": "uint256",
          "name": "",
          "type": "uint256"
        }
      ],
      "stateMutability": "view",
      "type": "function"
    },
    {
      "inputs": [
        {
          "internalType": "address",
          "name": "to",
          "type": "address"
        },
        {
          "internalType": "uint256",
          "name": "amount",
          "type": "uint256"
        }
      ],
      "name": "transfer",
      "outputs": [
        {
          "internalType": "bool",
          "name": "",
          "type": "bool"
        }
      ],
      "stateMutability": "nonpayable",
      "type": "function"
    },
    {
      "inputs": [
        {
          "internalType": "address",
          "name": "from",
          "type": "address"
        },
        {
          "internalType": "address",
          "name": "to",
          "type": "address"
        },
        {
          "internalType": "uint256",
          "name": "amount",
          "type": "uint256"
        }
      ],
      "name": "transferFrom",
      "outputs": [
        {
          "internalType": "bool",
          "name": "",
          "type": "bool"
        }
      ],
      "stateMutability": "nonpayable",
      "type": "function"
    }
  ],
  "bytecode": "0x6080604052600a6006553480156200001657600080fd5b5060405162001fe338038062001fe383398181016040528101906200003c919062000372565b6040518060400160405280600781526020017f426574436f696e000000000000000000000000000000000000000000000000008152506040518060400160405280600381526020017f42455400000000000000000000000000000000000000000000000000000000008152508160039080519060200190620000c0929190620002ab565b508060049080519060200190620000d9929190620002ab565b5050506200011833620000f16200011f60201b60201c565b600a620000ff9190620004de565b836200010c91906200061b565b6200012860201b60201c565b5062000777565b60006012905090565b600073ffffffffffffffffffffffffffffffffffffffff168273ffffffffffffffffffffffffffffffffffffffff1614156200019b576040517f08c379a00000000000000000000000000000000000000000000000000000000081526004016200019290620003d6565b60405180910390fd5b620001af60008383620002a160201b60201c565b8060026000828254620001c3919062000426565b92505081905550806000808473ffffffffffffffffffffffffffffffffffffffff1673ffffffffffffffffffffffffffffffffffffffff16815260200190815260200160002060008282546200021a919062000426565b925050819055508173ffffffffffffffffffffffffffffffffffffffff16600073ffffffffffffffffffffffffffffffffffffffff167fddf252ad1be2c89b69c2b068fc378daa952ba7f163c4a11628f55a4df523b3ef83604051620002819190620003f8565b60405180910390a36200029d60008383620002a660201b60201c565b5050565b505050565b505050565b828054620002b99062000693565b90600052602060002090601f016020900481019282620002dd576000855562000329565b82601f10620002f857805160ff191683800117855562000329565b8280016001018555821562000329579182015b82811115620003285782518255916020019190600101906200030b565b5b5090506200033891906200033c565b5090565b5b80821115620003575760008160009055506001016200033d565b5090565b6000815190506200036c816200075d565b92915050565b6000602082840312156200038557600080fd5b600062000395848285016200035b565b91505092915050565b6000620003ad601f8362000415565b9150620003ba8262000734565b602082019050919050565b620003d0816200067c565b82525050565b60006020820190508181036000830152620003f1816200039e565b9050919050565b60006020820190506200040f6000830184620003c5565b92915050565b600082825260208201905092915050565b600062000433826200067c565b915062000440836200067c565b9250827fffffffffffffffffffffffffffffffffffffffffffffffffffffffffffffffff03821115620004785762000477620006c9565b5b828201905092915050565b6000808291508390505b6001851115620004d557808604811115620004ad57620004ac620006c9565b5b6001851615620004bd5780820291505b8081029050620004cd8562000727565b94506200048d565b94509492505050565b6000620004eb826200067c565b9150620004f88362000686565b9250620005277fffffffffffffffffffffffffffffffffffffffffffffffffffffffffffffffff84846200052f565b905092915050565b60008262000541576001905062000614565b8162000551576000905062000614565b81600181146200056a57600281146200057557620005ab565b600191505062000614565b60ff8411156200058a5762000589620006c9565b5b8360020a915084821115620005a457620005a3620006c9565b5b5062000614565b5060208310610133831016604e8410600b8410161715620005e55782820a905083811115620005df57620005de620006c9565b5b62000614565b620005f4848484600162000483565b925090508184048111156200060e576200060d620006c9565b5b81810290505b9392505050565b600062000628826200067c565b915062000635836200067c565b9250817fffffffffffffffffffffffffffffffffffffffffffffffffffffffffffffffff0483118215151615620006715762000670620006c9565b5b828202905092915050565b6000819050919050565b600060ff82169050919050565b60006002820490506001821680620006ac57607f821691505b60208210811415620006c357620006c2620006f8565b5b50919050565b7f4e487b7100000000000000000000000000000000000000000000000000000000600052601160045260246000fd5b7f4e487b7100000000000000000000000000000000000000000000000000000000600052602260045260246000fd5b60008160011c9050919050565b7f45524332303a206d696e7420746f20746865207a65726f206164647265737300600082015250565b62000768816200067c565b81146200077457600080fd5b50565b61185c80620007876000396000f3fe608060405234801561001057600080fd5b50600436106100b45760003560e01c806370a082311161007157806370a08231146101a357806395d89b41146101d3578063a457c2d7146101f1578063a9059cbb14610221578063dd62ed3e14610251578063de5f72fd14610281576100b4565b806306fdde03146100b9578063095ea7b3146100d757806318160ddd1461010757806323b872dd14610125578063313ce567146101555780633950935114610173575b600080fd5b6100c161028b565b6040516100ce91906110b8565b60405180910390f35b6100f160048036038101906100ec9190610ec0565b61031d565b6040516100fe919061109d565b60405180910390f35b61010f610340565b60405161011c91906111fa565b60405180910390f35b61013f600480360381019061013a9190610e71565b61034a565b60405161014c919061109d565b60405180910390f35b61015d610379565b60405161016a9190611215565b60405180910390f35b61018d60048036038101906101889190610ec0565b610382565b60405161019a919061109d565b60405180910390f35b6101bd60048036038101906101b89190610e0c565b61042c565b6040516101ca91906111fa565b60405180910390f35b6101db610474565b6040516101e891906110b8565b60405180910390f35b61020b60048036038101906102069190610ec0565b610506565b604051610218919061109d565b60405180910390f35b61023b60048036038101906102369190610ec0565b6105f0565b604051610248919061109d565b60405180910390f35b61026b60048036038101906102669190610e35565b610613565b60405161027891906111fa565b60405180910390f35b61028961069a565b005b60606003805461029a906114f5565b80601f01602080910402602001604051908101604052809291908181526020018280546102c6906114f5565b80156103135780601f106102e857610100808354040283529160200191610313565b820191906000526020600020905b8154815290600101906020018083116102f657829003601f168201915b5050505050905090565b600080610328610798565b90506103358185856107a0565b600191505092915050565b6000600254905090565b600080610355610798565b905061036285828561096b565b61036d8585856109f7565b60019150509392505050565b60006012905090565b60008061038d610798565b9050610421818585600160008673ffffffffffffffffffffffffffffffffffffffff1673ffffffffffffffffffffffffffffffffffffffff16815260200190815260200160002060008973ffffffffffffffffffffffffffffffffffffffff1673ffffffffffffffffffffffffffffffffffffffff1681526020019081526020016000205461041c919061124c565b6107a0565b600191505092915050565b60008060008373ffffffffffffffffffffffffffffffffffffffff1673ffffffffffffffffffffffffffffffffffffffff168152602001908152602001600020549050919050565b606060048054610483906114f5565b80601f01602080910402602001604051908101604052809291908181526020018280546104af906114f5565b80156104fc5780601f106104d1576101008083540402835291602001916104fc565b820191906000526020600020905b8154815290600101906020018083116104df57829003601f168201915b5050505050905090565b600080610511610798565b90506000600160008373ffffffffffffffffffffffffffffffffffffffff1673ffffffffffffffffffffffffffffffffffffffff16815260200190815260200160002060008673ffffffffffffffffffffffffffffffffffffffff1673ffffffffffffffffffffffffffffffffffffffff168152602001908152602001600020549050838110156105d7576040517f08c379a00000000000000000000000000000000000000000000000000000000081526004016105ce906111ba565b60405180910390fd5b6105e482868684036107a0565b60019250505092915050565b6000806105fb610798565b90506106088185856109f7565b600191505092915050565b6000600160008473ffffffffffffffffffffffffffffffffffffffff1673ffffffffffffffffffffffffffffffffffffffff16815260200190815260200160002060008373ffffffffffffffffffffffffffffffffffffffff1673ffffffffffffffffffffffffffffffffffffffff16815260200190815260200160002054905092915050565b42600560003373ffffffffffffffffffffffffffffffffffffffff1673ffffffffffffffffffffffffffffffffffffffff168152602001908152602001600020541061071b576040517f08c379a00000000000000000000000000000000000000000000000000000000081526004016107129061115a565b60405180910390fd5b61012c42610729919061124c565b600560003373ffffffffffffffffffffffffffffffffffffffff1673ffffffffffffffffffffffffffffffffffffffff1681526020019081526020016000208190555061079633610778610379565b600a61078491906112f5565b6006546107919190611413565b610c78565b565b600033905090565b600073ffffffffffffffffffffffffffffffffffffffff168373ffffffffffffffffffffffffffffffffffffffff161415610810576040517f08c379a00000000000000000000000000000000000000000000000000000000081526004016108079061119a565b60405180910390fd5b600073ffffffffffffffffffffffffffffffffffffffff168273ffffffffffffffffffffffffffffffffffffffff161415610880576040517f08c379a0000000000000000000000000000000000000000000000000000000008152600401610877906110fa565b60405180910390fd5b80600160008573ffffffffffffffffffffffffffffffffffffffff1673ffffffffffffffffffffffffffffffffffffffff16815260200190815260200160002060008473ffffffffffffffffffffffffffffffffffffffff1673ffffffffffffffffffffffffffffffffffffffff168152602001908152602001600020819055508173ffffffffffffffffffffffffffffffffffffffff168373ffffffffffffffffffffffffffffffffffffffff167f8c5be1e5ebec7d5bd14f71427d1e84f3dd0314c0f7b2291e5b200ac8c7c3b9258360405161095e91906111fa565b60405180910390a3505050565b60006109778484610613565b90507fffffffffffffffffffffffffffffffffffffffffffffffffffffffffffffffff81146109f157818110156109e3576040517f08c379a00000000000000000000000000000000000000000000000000000000081526004016109da9061111a565b60405180910390fd5b6109f084848484036107a0565b5b50505050565b600073ffffffffffffffffffffffffffffffffffffffff168373ffffffffffffffffffffffffffffffffffffffff161415610a67576040517f08c379a0000000000000000000000000000000000000000000000000000000008152600401610a5e9061117a565b60405180910390fd5b600073ffffffffffffffffffffffffffffffffffffffff168273ffffffffffffffffffffffffffffffffffffffff161415610ad7576040517f08c379a0000000000000000000000000000000000000000000000000000000008152600401610ace906110da565b60405180910390fd5b610ae2838383610dd8565b60008060008573ffffffffffffffffffffffffffffffffffffffff1673ffffffffffffffffffffffffffffffffffffffff16815260200190815260200160002054905081811015610b68576040517f08c379a0000000000000000000000000000000000000000000000000000000008152600401610b5f9061113a565b60405180910390fd5b8181036000808673ffffffffffffffffffffffffffffffffffffffff1673ffffffffffffffffffffffffffffffffffffffff16815260200190815260200160002081905550816000808573ffffffffffffffffffffffffffffffffffffffff1673ffffffffffffffffffffffffffffffffffffffff1681526020019081526020016000206000828254610bfb919061124c565b925050819055508273ffffffffffffffffffffffffffffffffffffffff168473ffffffffffffffffffffffffffffffffffffffff167fddf252ad1be2c89b69c2b068fc378daa952ba7f163c4a11628f55a4df523b3ef84604051610c5f91906111fa565b60405180910390a3610c72848484610ddd565b50505050565b600073ffffffffffffffffffffffffffffffffffffffff168273ffffffffffffffffffffffffffffffffffffffff161415610ce8576040517f08c379a0000000000000000000000000000000000000000000000000000000008152600401610cdf906111da565b60405180910390fd5b610cf460008383610dd8565b8060026000828254610d06919061124c565b92505081905550806000808473ffffffffffffffffffffffffffffffffffffffff1673ffffffffffffffffffffffffffffffffffffffff1681526020019081526020016000206000828254610d5b919061124c565b925050819055508173ffffffffffffffffffffffffffffffffffffffff16600073ffffffffffffffffffffffffffffffffffffffff167fddf252ad1be2c89b69c2b068fc378daa952ba7f163c4a11628f55a4df523b3ef83604051610dc091906111fa565b60405180910390a3610dd460008383610ddd565b5050565b505050565b505050565b600081359050610df1816117f8565b92915050565b600081359050610e068161180f565b92915050565b600060208284031215610e1e57600080fd5b6000610e2c84828501610de2565b91505092915050565b60008060408385031215610e4857600080fd5b6000610e5685828601610de2565b9250506020610e6785828601610de2565b9150509250929050565b600080600060608486031215610e8657600080fd5b6000610e9486828701610de2565b9350506020610ea586828701610de2565b9250506040610eb686828701610df7565b9150509250925092565b60008060408385031215610ed357600080fd5b6000610ee185828601610de2565b9250506020610ef285828601610df7565b9150509250929050565b610f058161147f565b82525050565b6000610f1682611230565b610f20818561123b565b9350610f308185602086016114c2565b610f3981611585565b840191505092915050565b6000610f5160238361123b565b9150610f5c826115a3565b604082019050919050565b6000610f7460228361123b565b9150610f7f826115f2565b604082019050919050565b6000610f97601d8361123b565b9150610fa282611641565b602082019050919050565b6000610fba60268361123b565b9150610fc58261166a565b604082019050919050565b6000610fdd601c8361123b565b9150610fe8826116b9565b602082019050919050565b600061100060258361123b565b915061100b826116e2565b604082019050919050565b600061102360248361123b565b915061102e82611731565b604082019050919050565b600061104660258361123b565b915061105182611780565b604082019050919050565b6000611069601f8361123b565b9150611074826117cf565b602082019050919050565b611088816114ab565b82525050565b611097816114b5565b82525050565b60006020820190506110b26000830184610efc565b92915050565b600060208201905081810360008301526110d28184610f0b565b905092915050565b600060208201905081810360008301526110f381610f44565b9050919050565b6000602082019050818103600083015261111381610f67565b9050919050565b6000602082019050818103600083015261113381610f8a565b9050919050565b6000602082019050818103600083015261115381610fad565b9050919050565b6000602082019050818103600083015261117381610fd0565b9050919050565b6000602082019050818103600083015261119381610ff3565b9050919050565b600060208201905081810360008301526111b381611016565b9050919050565b600060208201905081810360008301526111d381611039565b9050919050565b600060208201905081810360008301526111f38161105c565b9050919050565b600060208201905061120f600083018461107f565b92915050565b600060208201905061122a600083018461108e565b92915050565b600081519050919050565b600082825260208201905092915050565b6000611257826114ab565b9150611262836114ab565b9250827fffffffffffffffffffffffffffffffffffffffffffffffffffffffffffffffff0382111561129757611296611527565b5b828201905092915050565b6000808291508390505b60018511156112ec578086048111156112c8576112c7611527565b5b60018516156112d75780820291505b80810290506112e585611596565b94506112ac565b94509492505050565b6000611300826114ab565b915061130b836114b5565b92506113387fffffffffffffffffffffffffffffffffffffffffffffffffffffffffffffffff8484611340565b905092915050565b600082611350576001905061140c565b8161135e576000905061140c565b8160018114611374576002811461137e576113ad565b600191505061140c565b60ff8411156113905761138f611527565b5b8360020a9150848211156113a7576113a6611527565b5b5061140c565b5060208310610133831016604e8410600b84101617156113e25782820a9050838111156113dd576113dc611527565b5b61140c565b6113ef84848460016112a2565b9250905081840481111561140657611405611527565b5b81810290505b9392505050565b600061141e826114ab565b9150611429836114ab565b9250817fffffffffffffffffffffffffffffffffffffffffffffffffffffffffffffffff048311821515161561146257611461611527565b5b828202905092915050565b60006114788261148b565b9050919050565b60008115159050919050565b600073ffffffffffffffffffffffffffffffffffffffff82169050919050565b6000819050919050565b600060ff82169050919050565b60005b838110156114e05780820151818401526020810190506114c5565b838111156114ef576000848401525b50505050565b6000600282049050600182168061150d57607f821691505b6020821081141561152157611520611556565b5b50919050565b7f4e487b7100000000000000000000000000000000000000000000000000000000600052601160045260246000fd5b7f4e487b7100000000000000000000000000000000000000000000000000000000600052602260045260246000fd5b6000601f19601f8301169050919050565b60008160011c9050919050565b7f45524332303a207472616e7366657220746f20746865207a65726f206164647260008201527f6573730000000000000000000000000000000000000000000000000000000000602082015250565b7f45524332303a20617070726f766520746f20746865207a65726f20616464726560008201527f7373000000000000000000000000000000000000000000000000000000000000602082015250565b7f45524332303a20696e73756666696369656e7420616c6c6f77616e6365000000600082015250565b7f45524332303a207472616e7366657220616d6f756e742065786365656473206260008201527f616c616e63650000000000000000000000000000000000000000000000000000602082015250565b7f4661756365744572726f723a2054727920616761696e206c6174657200000000600082015250565b7f45524332303a207472616e736665722066726f6d20746865207a65726f20616460008201527f6472657373000000000000000000000000000000000000000000000000000000602082015250565b7f45524332303a20617070726f76652066726f6d20746865207a65726f2061646460008201527f7265737300000000000000000000000000000000000000000000000000000000602082015250565b7f45524332303a2064656372656173656420616c6c6f77616e63652062656c6f7760008201527f207a65726f000000000000000000000000000000000000000000000000000000602082015250565b7f45524332303a206d696e7420746f20746865207a65726f206164647265737300600082015250565b6118018161146d565b811461180c57600080fd5b50565b611818816114ab565b811461182357600080fd5b5056fea2646970667358221220dc2d8f8220fd8e603ec4f50192755322472ab39f936f5e8fcf5a33ff2522262564736f6c63430008040033",
  "linkReferences": {},
  "deployedLinkReferences": {}
}